:020000040000FA
:020000000528D1
:06000A008501860188015A
:100010008901A501A701A801A901831603130030D6
:10002000860007309F0000308500073088000130CF
:1000300089008312B9218030CA210130CA21803061
:10004000CA212030D1214A30D1214130D12156302E
:10005000D1214930D1214530D1215230D121203018
:10006000D1214C30D1214F30D1214930D1214430E0
:10007000D1214930D121DA210130CA218030CA2171
:100080002030D1214A30D1214F30D1214E30D121E1
:100090004130D1215430D1214830D1214130D121BA
:1000A0004E30D121C030CA214D30D1214530D1212F
:1000B0004E30D1214430D1214F30D1215A30D1217D
:1000C0004130D121DA210130CA218030CA212030CB
:1000D000D1214A30D1214530D1215330D121553061
:1000E000D1215330D121C030CA215630D1214130E5
:1000F000D1215A30D1215130D1215530D121453033
:10010000D1215A30D121DA210130CA218030CA21CF
:100110002030D1214A30D1215530D1214730D12151
:100120004130D1214430D1214F30D1215230D12121
:100130004530D1215330D1212030D1210808A300EE
:10014000303ED121DA212308003C03190529A401FE
:100150002630AC008313A501AC0AA40A2C08840045
:100160000130CA218030CA212030D1214A30D1212A
:100170002408303ED1213A30D1212030D1218B21A9
:100180000819DB280918C6288910B0288914A50A7F
:100190000130CA218030CA212030D1214A30D121FA
:1001A0002408303ED1213A30D1212030D1218B2179
:1001B000DA21DA21C528250880000130CA218030E3
:1001C000CA212030D1214A30D1212408303ED1210A
:1001D0003A30D1212030D1215430D1214F30D1219A
:1001E0005130D1215530D1214530D1215330D12149
:1001F0003A30D1212030D1218B21DA21DA21240893
:10020000D6002308D602031DAB280130CA21803056
:10021000CA212030D1214630D1214930D1214E3060
:10022000D1212030D1214A30D1215530D121453042
:10023000D1214730D1214F30D121C030CA212030C7
:10024000D1212708A5008B212030D1212808A50025
:100250008B212030D1212908A5008B21DA21DA2138
:10026000DA216A210130CA218030CA212030D1210F
:100270004730D1214130D1214E30D1214130D121DF
:100280004430D1214F30D1215230D1213A30D121C7
:100290002030D1214A30D1214308303ED121C03015
:1002A000CA212030D1212030D1214208A5008B2144
:1002B0002030D1215430D1214F30D1215130D121A2
:1002C0005530D1214530D1215330D121DA21DA21E5
:1002D000DA2131292630AC00A401D6012708C2005A
:1002E0000130C3008313AC0AA40A2C088400000860
:1002F000A5002508C1004208C102031C80298429E9
:100300002508C2002408C3002408D6002308D6020A
:10031000031D732908002508AD0098213108303EDF
:10032000D1213208303ED1213308303ED12108009E
:100330000030B300B200B100FF30D4002D08D2006D
:10034000D40A5208D3006430D2020318A0295408FA
:10035000B100FF30D4005308D200D40A5208D300B1
:100360000A30D2020318AD295408B2005308B30072
:1003700008003030CA21ED213030CA21ED2138305B
:10038000CA210C30CA210130CA210630CA210230EC
:10039000CA2108008600E42105108514E421851097
:1003A00008008600E42105148514E4218510E42169
:1003B000E4210800ED21ED21ED21ED21ED21ED21DC
:1003C000ED21ED21ED21ED210230A100A430A000AE
:1003D000A00BE829A10BE62908000330A000FF309C
:1003E000A100FF30A200A20BF329A10BF129A00B61
:0403F000EF290800E9
:00000001FF
