:020000040000FA
:020000000528D1
:06000A008501860183164A
:1000100003130030860007309F00003085008312F4
:1000200016208030272052302E20152830302720EF
:100030004020303027204020383027200C30272027
:1000400001302720063027200230272008008600B4
:1000500037200510851437208510080086003720CA
:10006000051485143720851037203720080002300A
:10007000A1006430A000A00B3B28A10B3928080088
:100080000330A000FF30A100FF30A200A20B4628E1
:0A009000A10B4428A00B4228080031
:00000001FF
