:020000000328D3
:10000600FF3083160313850006309F008601871094
:1000160007110F3083120505F1007108F20071080F
:10002600003A031D1D288710861006100711861139
:1000360006117B287208013A031D282887108610AE
:1000460006100715861106157B287208023A031D4D
:1000560033288710861006100715861506117B288B
:100066007208033A031D3E288714861006140711EA
:10007600861106117B287208043A031D4928871445
:10008600861406100711861106117B287208053A98
:10009600031D5428871486100614071586110615A5
:1000A6007B287208063A031D5F28871486140610FB
:1000B6000715861506117B287208073A031D6A285C
:1000C6008714861006140715861506117B287208F4
:1000D600083A031D7528871486140610071586111D
:1000E60006157B2887108610061007118611061143
:1000F6001A30FB005E30FC006E30FD00FD0B8128DF
:0E010600FC0B8128FB0B812800000C288928A7
:02400E004A2F37
:00000001FF
