:020000001628C0
:0E0006008312031323088A00220882000800D8
:1000140003208A110A128000840AA20A0319A30A7F
:08002400F003031D0A28080087
:10002C0083120313A001A101FF3083168500063053
:10003C009F008601871007110F3083120505F10010
:10004C007108F2007108003A031D5428A001A101A7
:10005C0080302106F00080307002031D37280A30F2
:10006C0020020318512807118710861106118610DB
:10007C0006100330FB008A30FC005530FD00FD0BF0
:10008C004528FC0B4528FB0B452800000000A00A66
:10009C000319A10A2E28A001A101DB297208083A34
:1000AC00031D8028A001A10180302106F0008030C2
:1000BC007002031D63280A30200203187D280715DF
:1000CC00871086110611861006140330FB008A3047
:1000DC00FC005530FD00FD0B7128FC0B7128FB0B4F
:1000EC00712800000000A00A0319A10A5A28A001D7
:1000FC00A101DB297208073A031DAC28A001A1015C
:10010C0080302106F00080307002031D8F280A30E9
:10011C0020020318A92807158710861106118614CA
:10012C0006100330FB008A30FC005530FD00FD0B3F
:10013C009D28FC0B9D28FB0B9D2800000000A00AAD
:10014C000319A10A8628A001A101DB297208063A2D
:10015C00031DD828A001A10180302106F0008030B9
:10016C007002031DBB280A3020020318D528071182
:10017C00871486110611861406140330FB008A308E
:10018C00FC005530FD00FD0BC928FC0BC928FB0BEE
:10019C00C92800000000A00A0319A10AB228A00176
:1001AC00A101DB297208053A031D0429A001A10154
:1001BC0080302106F00080307002031DE7280A30E1
:1001CC0020020318012907118714861106158610C1
:1001DC0006100330FB008A30FC005530FD00FD0B8F
:1001EC00F528FC0BF528FB0BF52800000000A00AF5
:1001FC000319A10ADE28A001A101DB297208043A27
:10020C00031D3029A001A10180302106F0008030AF
:10021C007002031D13290A30200203182D2907151B
:10022C00871486110615861006140330FB008A30DD
:10023C00FC005530FD00FD0B2129FC0B2129FB0B8B
:10024C00212900000000A00A0319A10A0A29A00113
:10025C00A101DB297208033A031D5C29A001A1014D
:10026C0080302106F00080307002031D3F290A30D7
:10027C0020020318592907158714861106158614B0
:10028C0006100330FB008A30FC005530FD00FD0BDE
:10029C004D29FC0B4D29FB0B4D2900000000A00A39
:1002AC000319A10A3629A001A101DB297208023A1F
:1002BC00031D8829A001A10180302106F0008030A7
:1002CC007002031D6B290A302002031885290715BB
:1002DC00871486110615861406140330FB008A3029
:1002EC00FC005530FD00FD0B7929FC0B7929FB0B2B
:1002FC00792900000000A00A0319A10A6229A001B3
:10030C00A101DB297208013A031DB429A001A10146
:10031C0080302106F00080307002031D97290A30CE
:10032C0020020318B12907158714861506118610AB
:10033C0006100330FB008A30FC005530FD00FD0B2D
:10034C00A529FC0BA529FB0BA52900000000A00A80
:10035C000319A10A8E29A001A101DB29A001A10189
:10036C0080302106F00080307002031DBF290A3056
:10037C0020020318D9298710071186100610861140
:10038C0006110330FB008A30FC005530FD00FD0BDC
:10039C00CD29FC0BCD29FB0BCD2900000000A00AB8
:0E03AC000319A10AB629A001A1012228DC290B
:02400E004A2F37
:00000001FF
