:020000001828BE
:0E000A008312031323088A00220882000800D4
:1000180005208A110A128000840AA20A0319A30A79
:08002800F003031D0C28080081
:1000300083120313A001A101831686013F308500BE
:1000400006309F00831286010508003A031D2A2806
:10005000860145290508013A031D3128FF30860035
:1000600045290508023A031D6F2880308600A0014B
:10007000A101A001A10180302106F00080307002B2
:10008000031D44280730200203186C280608F300DB
:10009000F30CF31301300605F2000730F10072088B
:1000A000F000710803195828F00D7010FF3E522817
:1000B0007008730486000D30FB00AF30FC00B630D2
:1000C000FD00FD0B6128FC0B6128FB0B6128000083
:1000D000A00A0319A10A3B28A001A101452905088E
:1000E000033A031DAD2801308600A001A101A00143
:1000F000A10180302106F00080307002031D8228AB
:10010000073020020318AA280608F300F30D731025
:1001100080300605F2000730F1007208F000710827
:1001200003199628F00CF013FF3E90287008730412
:1001300086000D30FB00AF30FC00B630FD00FD0B3B
:100140009F28FC0B9F28FB0B9F280000A00A031987
:10015000A10A7928A001A10145290508043A031D37
:10016000222980308600A001A101A001A1018030D8
:100170002106F00080307002031DC02807302002E5
:100180000318E8280608F300F30CF3130130060502
:10019000F2000730F1007208F00071080319D4284A
:1001A000F00D7010FF3ECE287008730486000D30ED
:1001B000FB00AF30FC00B630FD00FD0BDD28FC0B72
:1001C000DD28FB0BDD280000A00A0319A10AB728CF
:1001D00001308600A001A101A001A101803021060B
:1001E000F00080307002031DF7280730200203184A
:1001F0001F290608F300F30D731080300605F20086
:100200000730F1007208F000710803190B29F00C97
:10021000F013FF3E05297008730486000D30FB00C3
:10022000AF30FC00B630FD00FD0B1429FC0B142987
:10023000FB0B14290000A00A0319A10AEE28A00153
:10024000A10145290508053A031D442986010D3001
:10025000FB00AF30FC00B630FD00FD0B2D29FC0B80
:100260002D29FB0B2D290000FF3086000D30FB00EF
:10027000AF30FC00B630FD00FD0B3C29FC0B3C29E7
:0E028000FB0B3C290000452986012428462955
:02400E00CA29BD
:00000001FF
