:100000005B28FF3FFF3FFF3F0030031383128C1A32
:100010000130F1007108003A031904281A08F000B1
:10002000080003138312FB01FA01F9018030F80084
:10003000FD01F11F2128F109F009F00A0319F10A65
:10004000FD0AF51F2928F509F409F40A0319F50A30
:10005000FD0AF10CF00C031C36287408F90775082A
:100060000318750FFA070318FB0A0310F01F3E2848
:100070007408FA070318FB0A7508FB07FB0CFA0C57
:10008000F90CF80C031C29287D1C5128FB09FA09DE
:10009000F909F809F80A0319F90A0319FA0A031900
:1000A000FB0A7B08F3007A08F2007908F10078086F
:1000B000F00000000800C03003138312A400603079
:1000C000A5003030A6009030A700A201A30183163E
:1000D000860181309900181518128312981783161B
:1000E00098168312181604207008A00000308C1A8D
:1000F0000130F2007208003A031D71292008313ADC
:10010000031DA828A801A90180302906F00080302D
:100110007002031D8D28043028020318A82828081F
:10012000243F8400000886002130FB00FF30FA00E5
:10013000FB0B9B289E28FA0B9B2898286030FA001E
:10014000FA0BA02800000000A80A0319A90A8428B5
:100150002008323A031DD5280330A8000030A9003A
:100160007F30F000803029067002031DB92828086E
:10017000FF3C0318D5282808243F84000008860087
:100180002130FB00FF30FA00FB0BC728CA28FA0B0E
:10019000C728C4286030FA00FA0BCC280000000001
:1001A0000130A802031CA903B0282008333A031D1C
:1001B000702904207008A100042030307002A200D1
:1001C000A301031CA3032108313A031D2829AA0116
:1001D000AB012208F0002308F1000830F4000230DF
:1001E000F500112080302B06F2008030710672027B
:1001F000031DFC2870082A0203182829A801A90158
:1002000080302906F00080307002031D0929043077
:100210002802031824292808243F840000088600A7
:100220002130FB00FF30FA00FB0B17291A29FA0BCB
:10023000172914296030FA00FA0B1C29000000006D
:10024000A80A0319A90A0029AA0A0319AB0AE9286E
:100250002108323A031D7029AA01AB012208F000DF
:100260002308F1000830F4000230F500112080303E
:100270002B06F200803071067202031D41297008BE
:100280002A02031870290330A8000030A9007F302B
:10029000F000803029067002031D50292808FF3C19
:1002A00003186C292808243F8400000886002130A8
:1002B000FB00FF30FA00FB0B5E296129FA0B5E2977
:1002C0005B296030FA00FA0B63290000000001305E
:1002D000A802031CA9034729AA0A0319AB0A2E295D
:1002E000762873287229FF3FFF3FFF3FFF3FFF3F04
:02400E007A3FF7
:00000001FF
