:020000000328D3
:100006003F3083160313850006309F008601871054
:1000160007113F3083120505F10057288710861017
:1000260006100711861106117C2887108610061007
:100036000715861106157C288714861006140711E5
:10004600861106117C28871486140610071186115E
:1000560006117C28871086100610071586110615CE
:100066007C288714861006140715861106157C2829
:100076008714861406100715861506117C28871422
:10008600861006140711861106117C288710861023
:1000960006100715861506117C288710861006108F
:1000A6000711861106117C287108003A03191128D8
:1000B6007108013A031918287108023A03191F2812
:1000C6007108033A031926287108043A03192D28E2
:1000D6007108053A031934287108063A03193B28B2
:1000E6007108073A031942287108083A0319492882
:0600F60050280C287D28B3
:02400E00CA2FB7
:00000001FF
