:020000003628A0
:10000600831203138C1A082803281A08F000080024
:1000160083120313FB01FA01F9018030F800F10C99
:10002600F00C031C1F287408F90775080318750FD0
:10003600FA070318FB0A0310F01F27287408FA07AB
:1000460075080318750FFB07FB0CFA0CF90CF80C76
:10005600031C12287B08F3007A08F2007908F100E5
:060066007808F00008001C
:10006C0083120313A801A901C030AA006030AB00B1
:10007C003030AC009030AD00831686018130990091
:10008C0018151812831298178316981683121816BF
:10009C0003207008A2007008313A031D7528A401D2
:1000AC00A50180302506F00080307002031D602809
:1000BC00043024020318742824082A3E8400000803
:1000CC0086002130FC007630FD00FD0B6B28FC0B0C
:1000DC006B280000A40A0319A50A57282A2922080C
:1000EC00323A031D9C280330A4000030A5007F3059
:1000FC00F000803025067002031D86282408FF3C82
:10010C0003189B2824082A3E84000008860021300E
:10011C00FC007630FD00FD0B9128FC0B91280000B3
:10012C000130A402031CA5037D282A292208333A96
:10013C00031D2A2903207008A3000320303070020D
:10014C00A800A901031CA9032308313A031DE928BF
:10015C00A601A7010830F0000230F1002808F400D5
:10016C002908F5000B2080302706F200803071063C
:10017C007202031DC328700826020318E828A40184
:10018C00A50180302506F00080307002031DD028B8
:10019C00043024020318E42824082A3E84000008B2
:1001AC0086002130FC007630FD00FD0BDB28FC0BBB
:1001BC00DB280000A40A0319A50AC728A60A0319FC
:1001CC00A70AB0282A292308323A031D2A29A60196
:1001DC00A7010830F0000230F1002808F4002908CB
:1001EC00F5000B2080302706F20080307106720279
:1001FC00031D02297008260203182A290330A400C3
:10020C000030A5007F30F000803025067002031D01
:10021C0011292408FF3C0318262924082A3E8400AF
:10022C00000886002130FC007630FD00FD0B1C29F7
:10023C00FC0B1C2900000130A402031CA503082997
:0C024C00A60A0319A70AEF284E282B2948
:02400E00CA2FB7
:00000001FF
